:020000040800F2
:1000000000100020ED3300083534000835340008B6
:10001000353400083534000835340008000000008D
:10002000000000000000000000000000353400085F
:10003000353400080000000035340008353400086D
:1000400000000000000000000000000000000000B0
:1000500000000000000000000000000000000000A0
:100060000000000000000000000000000000000090
:100070000000000000000000000000000000000080
:100080000000000000000000000000000000000070
:100090000000000000000000000000000000000060
:1000A0000000000000000000000000000000000050
:1000B0000000000000000000000000000000000040
:1000C0000000000000000000000000000000000030
:1000D0000000000000000000000000000000000020
:1000E0000000000000000000000000000000000010
:1000F0000000000000000000000000000000000000
:1001000000000000000000000000000000000000EF
:1001100000000000000000000000000000000000DF
:1001200000000000000000000000000000000000CF
:1001300000000000000000000000000000000000BF
:1001400000000000000000000000000000000000AF
:10015000000000000000000000000000000000009F
:10016000000000000000000000000000000000008F
:10017000000000000000000000000000000000007F
:08018000000000000000000077
:100188000448054B10B5834203D0044B002B00D024
:10019800984710BD600000206000002000000000AB
:1001A80006480749091A8B10C90FC91810B5491014
:1001B80003D0044B002B00D0984710BD60000020EE
:1001C800600000200000000010B5074C2378002BC9
:1001D80009D1FFF7D5FF054B002B02D0044800E0FA
:1001E80000BF0123237010BD600000200000000044
:1001F80038340008054B10B5002B03D004490548D6
:1002080000E000BFFFF7CCFF10BDC04600000000B3
:10021800640000203834000802B4714649084900D7
:10022800095C49008E4402BC7047C046002243085E
:100238008B4274D303098B425FD3030A8B4244D3A6
:10024800030B8B4228D3030C8B420DD3FF220902E8
:1002580012BA030C8B4202D31212090265D0030BA7
:100268008B4219D300E0090AC30B8B4201D3CB039D
:10027800C01A5241830B8B4201D38B03C01A5241DF
:10028800430B8B4201D34B03C01A5241030B8B42E1
:1002980001D30B03C01A5241C30A8B4201D3CB02CC
:1002A800C01A5241830A8B4201D38B02C01A5241B1
:1002B800430A8B4201D34B02C01A5241030A8B42B4
:1002C80001D30B02C01A5241CDD2C3098B4201D3CC
:1002D800CB01C01A524183098B4201D38B01C01A4A
:1002E800524143098B4201D34B01C01A52410309C1
:1002F8008B4201D30B01C01A5241C3088B4201D370
:10030800CB00C01A524183088B4201D38B00C01A1C
:10031800524143088B4201D34B00C01A5241411A43
:1003280000D20146524110467047FFE701B5002050
:1003380000F006F802BDC0460029F7D076E77047FE
:100348007047C046114B70B51C680500236B002B25
:1003580003D000221D615A6170BD182000F00CF90D
:10036800031E20630CD00A4A00210260094A426039
:10037800094A82600B228281012018615961E8E7ED
:1003880000224621054B064800F050F804000020E2
:100398000E33CDAB34126DE6ECDE050038350008BF
:1003A80050350008184B70B51D682C6B002C0ED00A
:1003B80020696169154A164B01F092FE012200235B
:1003C80012184B41580040082261636170BD182023
:1003D80000F0D2F8041E28630FD00E4B01220360F0
:1003E8000D4B43600D4B83600B2383810023026117
:1003F800436107480A4A064BE6E700225221094BA7
:10040800094800F013F8C046040000202D7F954CE1
:100418002DF451580E33CDAB34126DE6ECDE0500E9
:100428002E7F954C383500085035000870B51400FB
:100438001A000A4B06001B6884B0D868002C0AD042
:10044800074B084D0193009133002900029400F0F6
:10045800B3F800F035F8044B1C00F2E70400002064
:100468007C3500088C35000888350008130010B565
:100478000022FFF7DBFFC04670B50D4B0D4D5E1B2C
:10048800B610AB4205D0002408CD01349847A642E7
:10049800FAD802F0CDFF084B084D5E1BB610AB42F0
:1004A80005D0002408CD01349847A642FAD870BD7B
:1004B800F8350008F8350008FC350008F83500085C
:1004C800062010B500F0C8FC012001F045FEC0462A
:1004D800F0B50500830749D0541E002A45D0030013
:1004E8000326CAB202E00135013C3ED301332A702B
:1004F8003342F8D1032C30D9FF220A401502AD1837
:100508002A04AD180F2C34D92700103F3F093E01AB
:10051800B4461E001A001036664415605560956092
:10052800D56010329642F8D101373F01DB190F2709
:100538000C22274022403C00002A0ED03E1FB6085D
:10054800B400A4461A001C1D644420C2A242FCD177
:1005580003240136B6009B193C40002C05D0C9B2D3
:100568001C19197001339C42FBD1F0BD0300140023
:10057800C0E72700E2E7C04610B5034B0100186842
:1005880000F02EFF10BDC0460400002010B5034B3C
:100598000100186800F0ACFF10BDC0460400002040
:1005A8000CB400B583B004AB04CB019300F096F80B
:1005B80003B008BC02B018470EB400B582B003AB54
:1005C8000100054804CB0068019300F087F802B0E9
:1005D80008BC03B01847C04604000020F0B5050069
:1005E8000F2A31D903273E000D430C0003002E408B
:1005F8002F4234D11500103D2D09AC462F013F186C
:1006080065685D60A5689D60E568DD6025681034F3
:100618001D601D001033BD42F2D165460F230C2426
:1006280001352D0149191340451914421AD0043BCC
:100638009B0801339B008C59AC5104369E42FAD179
:100648000323AD1989191A40561E002A06D0002323
:10065800CC5C1A00EC5401339642F9D1F0BD050088
:10066800561EF4E71A00EFE7936810B5013B936054
:10067800002B04DA9469A34207DB0A2905D0136822
:10068800581C10600800197010BD00F071F9FBE7E4
:10069800F8B506000F00002B0DD01400D51802E0A5
:1006A8000134AC4207D03A0030002178FFF7DCFF74
:1006B800431CF5D1F8BD0020FCE7C04610B5140076
:1006C80092680023002A05D0220000F0ABF900222E
:1006D8000300A26000221800626010BDF0B54E460B
:1006E8004546DE465746E0B58146884614001E005A
:1006F8009FB0002803D0036A002B00D11FE14346B6
:100708009B891B0700D48FE043461B69002B00D14F
:100718008AE0002306AD6B6120336B761033AB762D
:100728005346A346874F059603935B461B78002BD9
:1007380000D19BE05C4603E063780134002B7DD058
:10074800252BF9D15B46E31A9A465C457BD1237881
:10075800002B00D18AE0012300225B420692079316
:10076800002200230892099300234332AB54AB655F
:1007780001339B46013406E05A46C01B82401C00E8
:1007880029680A432A6005223800217801F088FA8E
:10079800631C1E000028EFD12A68D10602D5432128
:1007A80020306854110702D543212B206854217842
:1007B8002A2967D1059B191D1B680591002B00DAB2
:1007C80098E0EB6061782E2900D172E05E4C03223C
:1007D800200001F065FA002806D04023001B834062
:1007E8002A68013613432B603178731C0622574858
:1007F8009B46297601F054FA002800D180E0544B3A
:10080800002B67D005AA0092290042464846514B62
:1008180000E000BF0390039B013327D0039A6B6964
:10082800944663446B6180E74146484600F036FFD2
:10083800002800D16DE7012040421CE05B46E31A26
:100848009A465C4512D03B0000264746A0464C46D7
:10085800994602E00136B24543D95B463A0020008A
:10086800995DFFF701FF0130F4D1B84643469B89F3
:100878005B06E0D468691FB0F0BCBB46B246A94627
:10088800A046F0BD08003038260009289BD8EA6841
:10089800140000E00133A20012191978520014184C
:1008A800080030380928F5D91E00EC602E2900D040
:1008B8008CE771782A292DD1059BB01C1A1D1B685D
:1008C80005926B60002B02DA01235B426B60B17802
:1008D80006007BE70722059B0733934308330593FC
:1008E8009CE74B466A69A146524444466A61B84649
:1008F8001F002CE75B42EB6002231A432A6061E782
:1009080005AA0092290042464846124B01F00CF80D
:10091800039080E708000023303801366B6009280F
:1009280000D953E71A0093009B1871785B001A18D6
:100938000800303801360928F5D96A6046E700F022
:1009480029FCDCE6BC350008C4350008C8350008B9
:10095800000000009906000810B504001300034ABF
:1009680010680A002100FFF7B9FE10BD040000203E
:10097800F8B505000E001400002802D0036A002B09
:1009880041D0A369A360A3891B071BD52369002B4A
:1009980018D0FF22F7B2616916402268D31A99422B
:1009A8001FDD0133A1680139A160511C2160177056
:1009B80062699A421ED0A389DB0701D50A2E19D095
:1009C8003000F8BD2100280000F068FE002817D18B
:1009D800FF222369F7B2616916402268D31A994247
:1009E800DFDC2100280000F093FC002808D1012357
:1009F8002268D7E72100280000F08AFC0028DFD011
:100A080001267642DCE700F0C5FBBAE7030010B523
:100A18000A00034908681900FFF7AAFF10BDC0467D
:100A280004000020F0B54E46DE4657464546E0B580
:100A3800936883B00C0091460090002B5FD00C2384
:100A4800CA5E130763D50B69002B60D04B461F683D
:100A5800930723D5A36A00269A46B34B00259846E8
:100A6800216A002D16D02B00454500D9AE4B320027
:100A78000098D047002859DD4B464A469B683618EF
:100A88001B1A2D1A9360002B39D0A36A216A9A4643
:100A9800002DE8D13E687D680837E2E7D30762D5C4
:100AA8000023B84600209A4600261F00002E45D095
:100AB80000284CD03B00B3469E4200D99B46206894
:100AC8002269A5686369904203D9ED18AB4500DD3A
:100AD800FEE05B4500DDEEE0A56A5246216A00981B
:100AE800A847051E22DD01207F1B19D04B464A4628
:100AF8009B68AA445B1B761B9360002BD6D1002011
:100B080003B0F0BCBB46B246A946A046F0BD2100E2
:100B1800009800F0C3FD00280DD10C23E25E95E794
:100B28002100009800F0F4FB0028DFD00C22A35E1F
:100B380040221343A38101204042E1E708224346B3
:100B480094465E68E044002EF8D01B689A4632004E
:100B58000A21504601F0A4F8002800D1DBE05346F2
:100B68000130C71AA6E7002380219A4689008B46E0
:100B7800564655462068A36884469846002D5CD0A2
:100B880059460A425DD09A46AB4200D990E090237C
:100B9800DB001A4232D02169431A6069019343008D
:100BA8001B18D80FC3185810019B824601335B19D4
:100BB800834201D99A461800520500D497E00100F3
:100BC800009800F00DFC8046031E00D1A6E0019AB3
:100BD8002169FFF703FDA389544A13408022134378
:100BE800A38143462361019B1A0042449446226034
:100BF8005246A846AA46D31A6261A36052463100FB
:100C0800604600F0D1FC4246A8460025A36820684B
:100C18009B1A5044A36020604B4642469B6846445A
:100C28009B1A4A46936000D169E70C23E25E20686C
:100C3800A36884469846002DA2D13E687D6808378F
:100C48009AE7226982421BD362699046AA4217D862
:100C5800802328001B069D4200D33548414601F0F9
:100C680055F94346A26A43439046216A32000098E8
:100C7800C047002800DC59E780464346ED1ACBE719
:100C88009846AB4200D9A8464246310000F08CFC99
:100C98004246A36820689B1A4044A3602060002B4A
:100CA800EBD12100009800F033FB0028E5D03DE7A8
:100CB800A846AA46A2E75A46514600F075FC5A468D
:100CC800A3685D469B1AA36023685B4423600AE718
:100CD80051462A0000F068FC236821005B1900983F
:100CE800236000F015FB002800D1FCE61EE7020097
:100CF800009800F039FD8046002800D071E7009D7B
:100D08002169280000F0F4FB8022A3899343743AF8
:100D18001BB22A600CE7731C1F00CCE6009A0C3348
:100D280013600C22A35E03E700FCFF7F7FFBFFFF3D
:100D3800FFFFFF7FC36B10B50400002B01D000201C
:100D480010BD802100F04CFBE063002806D00200B3
:100D58000023803208C09042FCD1F0E701204042D5
:100D6800EEE7C04670B505000C0016001F2907D82D
:100D7800C06B002809D0A40004192068266070BD43
:100D88001623036001204042F9E78021280000F083
:100D980027FB010003000022E86380310028F1D01E
:100DA80004C38B42FCD1E6E770B505000C001F298F
:100DB8001ED8C36B002B0ED08A009B181A68002A15
:100DC80009D0012A05D0511C0ED00021200019603D
:100DD8009047002070BD280001F032F82200010081
:100DE800280001F019F8F5E7162303600120F1E760
:100DF8001623036001204042ECE7C04670B50500A9
:100E08000C001F2924D8C36B002B14D0A2009B18F8
:100E18001A68002A09D0511C0BD0012A07D00021DA
:100E2800200019609047002070BD0120FCE70320D6
:100E3800FAE70220F8E7802100F0D2FA031EE863FF
:100E480006D000210200803002C28242FCD1DDE7D8
:100E580001204042E8E7C046144B70B504001D6805
:100E68001F281DD8EB6B002B0DD082009B181A6829
:100E7800002A08D0012A04D0511C0DD00021196085
:100E88009047002070BD280000F0DAFF2200010022
:100E9800280000F0C1FFF5E7162301202B60F1E7D9
:100EA800162301202B604042ECE7C04604000020D6
:100EB800114B70B504000E001D681F2807D8E86B99
:100EC800002809D0A40004192068266070BD1623E4
:100ED8002B6001204042F9E78021280000F080FAC9
:100EE800010003000022E86380310028F1D004C328
:100EF8009942FCD1E6E7C046040000200C4B10B52F
:100F08001C68E36B002B01D0002010BD802120005D
:100F180000F066FAE063002806D002000023803261
:100F280008C09042FCD1EFE701204042EDE7C046FF
:100F380004000020174B70B504001D681F2825D831
:100F4800EB6B002B14D0A2009B181A68002A09D05A
:100F5800511C0BD0012A07D00021200019609047AE
:100F6800002070BD0120FCE70320FAE70220F8E723
:100F78008021280000F034FA031EE86306D000211F
:100F88000200803002C29042FCD1DCE701204042DE
:100F9800E7E7C046040000200020704710B5034A68
:100FA8000349044800F058FB10BDC0465400002017
:100FB800191300080800002041680B4B10B5040005
:100FC800994201D000F0A4F9A168084B994202D0D7
:100FD800200000F09DF9E168054B994202D02000FD
:100FE80000F096F910BDC046140300207C030020D1
:100FF800E403002000207047F8B5CE464746344C3D
:10100800344B354A2000002580B51A600423082295
:1010180000215C3025606560A560656625616561B5
:10102800A561E360FFF754FA2C4B200099466362F0
:101038002B4B2C4F9846A362CC23E5502A4B2B4EC2
:101048006367802308220021C430E550E7622663E5
:10105800A566E5662567A567E5672462FFF738FAA0
:10106800220088236832E2504A460433E25042465E
:1010780020000433E2500433E7500433E650383399
:10108800E5500433E5500433E550194A5C33E55024
:10109800583BE2500433E5502D300433E550082224
:1010A80004330021FF30E550FFF712FA2200F02345
:1010B800D032E2504A460433E25042460433E2500A
:1010C8000433E7500433E650C0BCB946B046F8BD17
:1010D8001403002010030020A50F0008651D000858
:1010E800911D0008D11D000809000100011E00081B
:1010F80012000200F8B5244B07001B68002B3BD0F8
:10110800224E7368B468013B03D51BE06834013B89
:1011180018D30C22A55E002DF8D120001C4B082204
:101128000021E36065662560A560656025616561ED
:10113800A5615C30FFF7CCF96563A563A564E56438
:101148002000F8BD3568002D01D02E00D9E7D62142
:101158003800490000F044F9041E10D00423D022BE
:101168000560250043600C300021A0605200FFF7A5
:10117800AFF934602E00C4E7FFF73EFFC0E70C2349
:1011880030603B60DCE7C0461003002054000020BC
:101198000100FFFF036A10B5002B00D010BD044BFF
:1011A8000362044B1B68002BF8D1FFF725FFF5E716
:1011B800C10F0008100300207047C0467047C046A2
:1011C80010B50020024A034900F046FA10BDC04697
:1011D80054000020A10F000810B50020024A03495E
:1011E80000F03AFA10BDC04654000020FD0F000878
:1011F800F0B5C64600B50C228B5E07000C001A0736
:101208003CD44A68002A5CDDE66A002E32D000220F
:101218003D68216A3A60DA0457D400220123380075
:10122800B0470200431C65D00C21635EE66A216A60
:101238005B0706D56368D21A636B002B01D0236C59
:10124800D21A00233800B047431C40D00023636003
:1012580023692360A389DB044AD4616B3D600029BC
:1012680008D023004433994202D0380000F040F9F6
:1012780000236363002080BCB846F0BD0E69002ED1
:10128800F8D00D680022AD1B0E609B0700D14A699B
:10129800A260002D04DCEDE736182D1A002DE9DDDB
:1012A800A36A3200984638002B00216AC0470028FC
:1012B800F2DC4022A38913431BB20120A3814042E0
:1012C800D9E70A6C002A9FDCD4E7626DB0E7396879
:1012D8000C22A35E1D2916D80C4ACA40D20712D583
:1012E8000022626022692260DB04B6D50029B4D1ED
:1012F8006065B2E73B68002B96D01D2B01D0162BFA
:10130800D7D13D60B6E740221343D6E7010040201D
:101318000B6970B505000C00002B08D0002802D01E
:10132800036A002B0AD00C22A35E002B01D10020F7
:1013380070BD21002800FFF75BFFF9E7FFF72AFFE0
:10134800F1E7C04670B5041E18D00F4B1D6803693D
:10135800002B08D0002D02D02B6A002B0AD00C22BB
:10136800A35E002B01D1002070BD21002800FFF7EB
:101378003FFFF9E72800FFF70DFFF0E7034A0449AC
:10138800044800F069F9EFE7040000205400002049
:10139800191300080800002070B5104E05003368C6
:1013A8000C00002B15D02100280000F0C5FC431CC0
:1013B8000CD00323C41C9C43A04205D0211A28004A
:1013C80000F0BAFC013001D0200070BD0124644255
:1013D800FAE7002100F0B0FC3060E4E74C0400209C
:1013E800F8B50323CE464746CD1C9D430835060075
:1013F80080B50C2D1ED20C25A9421DD8300000F056
:10140800C3FB3A4F7A68002A1AD0140004E06368D4
:101418002200002B14D01C0023685B1BF7D40B2B75
:1014280027D96119256094425BD051600B606368CD
:101438004B600DE0002DDFDA0C230020336014E050
:1014480029003000FFF7A8FF0400431C19D00560ED
:10145800300000F09BFB200007220B30231D904337
:10146800C21A984201D01B1AA350C0BCB946B04654
:10147800F8BD6368944202D05360E9E743467B6055
:10148800E6E77B689846002B24D044466368984674
:10149800002BFAD12368002199463000A14400F0BE
:1014A8004BFC814516D123683000ED1A2900FFF75F
:1014B80073FF01300ED023687A685B192360536884
:1014C800002B02D1DAE71A005B689C42FBD10023AB
:1014D8005360BDE70C233000336000F057FB002059
:1014E800C3E779600B6063684B60B1E74C04002088
:1014F80070B50500002915D00C1F2368002B23DBCD
:10150800280000F041FB274A1368002B05D0A342AE
:101518000BD92168601883422CD0280063601460BE
:1015280000F034FB70BDA34210D81A005B68002B92
:10153800F9D1106811188C4218D02CD3636054600C
:10154800280000F023FBEDE7E418D9E711685018EC
:10155800A04214D01FD8216860188342EED11868C1
:101568005B684118216063605460E9E723681B18D1
:101578001360E5E718685B6841182160CDE72068CB
:101588000918501811608342DAD118685B6841184D
:1015980011605360D4E70C2328002B6000F0F6FAA2
:1015A800C0E7C04650040020F0B588420AD98B181D
:1015B800984207D2531E002A03D0CA5CC254013B8A
:1015C800FBD2F0BD05000F2A0AD8561E002AF8D013
:1015D8000023CC5C1A00EC5401339642F9D1F0E7B1
:1015E80003273E000D430C0003002E402F422DD14F
:1015F8001500103D2D09AC462F013F1825681D60C8
:1016080065685D60A5689D60E5681034DD601D0053
:101618001033BD42F2D165460F230C2401352D014C
:10162800491913404519144213D0043B9B08013350
:101638009B008C59AC5104369E42FAD103231A40C0
:10164800AD198919561E002AC2D1BAE70500561EDF
:10165800BEE71A00B9E7C046F8B54746CE46884601
:1016680080B58146170000267D68BC68013D0DD411
:10167800A389012B07D90E22A35E013303D02100D1
:101688004846C04706436834013DF1D23F68002F01
:10169800EAD13000C0BCB946B046F8BD314B70B590
:1016A800050018680C00002802D0026A002A4FD0F2
:1016B8000C22A35E1A071DD52269002A24D0D90757
:1016C80008D50021A160616900204942A161002A72
:1016D80008D070BD0021980700D461690020A1607E
:1016E800002AF6D11A06F4D540221343A38101201B
:1016F8004042EEE7DA062ED55A0714D422690821AB
:101708000B43A381002ADAD1A02180208900800020
:1017180019408142D3D02100280000F039FA0C2268
:10172800A35E2269CBE7616B00290AD0220044320C
:10173800914204D02800FFF7DBFE0C22A35E0022B2
:101748006263242293430022626022692260D6E702
:10175800FFF720FDACE709222A6040221343A3814A
:10176800C5E7C04604000020F0B5C64607000E00D5
:10177800140000B500292DD0002A27D000F042FB24
:101788008046844203D835004308A34210D3210081
:101798003800FFF725FE051E0AD0220044450BD865
:1017A80031002800FEF71AFF31003800FFF7A0FECD
:1017B800280080BCB846F0BD310042462800FEF73C
:1017C8000DFF31003800FFF793FEF1E7FFF790FEB9
:1017D8000025EDE71100FFF703FE0500E8E7C04626
:1017E800F8B557464E464546DE46E0B51F000A9B0B
:1017F800924698460A698B6806000C009A4200DAFD
:101808001A0053461A604323E35C002B02D051466A
:1018180001320A602268910661D553465246062075
:101828001B680233136022681100104208D100209F
:10183800814619308346E168A344994247DC110088
:101848004323E35C5A1E934189060AD53020E118E8
:101858004331087045215A1C615CA2184332023397
:1018680011702200390030004332C04701301DD0CA
:10187800534606251B68E1689C462368A2682069D0
:101888002B40042B31D0824239DD00239946121AAD
:10189800914400251A3402E001354D452FDA012321
:1018A800220039003000C0470130F5D10120404204
:1018B800F0BCBB46B246A946A046F8BD01239C46EB
:1018C8005346E5681B68E144ED1A4D4524DD0123C4
:1018D8005A4639003000C0470130EFD1E6E706210B
:1018E80011420ED05A1E9341BBE76346C91ACB4337
:1018F800DB170B4099468242C9DC0029C9DC00206D
:10190800D6E7002053468146193083461B68E168B4
:10191800A3449942DBDC92E743232168E35C5A1E27
:101928009341890692D49CE7F0B54E4699464323E5
:101938009C4657464546DE468C446346E0B587B02C
:1019480002930C00097E90460700109A002914D0D3
:101958000B00583BDBB2202B48D888489B00C35863
:101968009F46136821681D1D606915601B680E0677
:1019780002D4490600D5DCE018600023029D2361EB
:101988004B46210000933800434605AAFFF728FF7D
:1019980001301ED02A00414638002369C84701306B
:1019A80017D02368E068059E9B071BD5B04219DD58
:1019B80019239A460025A24404E0E0680135831BF8
:1019C800AB420FDD0123524641463800C84701307B
:1019D800F3D10120404207B0F0BCBB46B246A9464D
:1019E800A046F0BDB042F6DA3000F4E72500422305
:1019F80001204235E154432300222061E254BFE72D
:101A080013682168181D10600D0602D44D0600D514
:101A180094E01A6816006368002A00DA92E0584ACF
:101A280093460A2203924BE01368206840CB0506D0
:101A380001D440067FD41360514B9B466F2900D1D7
:101A480091E00A23039337E013682500191D1160FC
:101A58001A68422301204235E254CCE71368191D65
:101A680011601D6800212800626800F019F900283B
:101A780000D181E0401B6060BDE7202321680B4353
:101A880023604521782060543E498B46116840C93F
:101A9800180603D4580601D53604360C1160DA0747
:101AA80002D5202213432360002E03D1202223686D
:101AB800934323601023039343230022E254636873
:101AC800A360002B18DB042122688A432260002EC1
:101AD80012D1029D002B49D1039B082B1ED0029BDB
:101AE8005B1B23614CE745235821E15424492368B3
:101AF8008B46CBE72368C4E7039B9A46029D3000D8
:101B08005146FEF719FC5B465B5C013D2B703300C8
:101B180006005345F3D2039B082BE0D12368DB076B
:101B2800DDD5626823699A42D9DC3023013D2B70E8
:101B3800D5E7188021E73604360C7CE700269E5F3F
:101B4800320068E743222D20A054A360002B02DB5B
:101B58000423994321600A239A46094B76429B46FF
:101B68000A230393CAE708230393A5E75B462500E6
:101B78001B7842352B70AFE760683CE77434000887
:101B8800D0350008E43500087047C0467047C046A5
:101B9800F0B50C23CD5E06000C0097B0AA0707D558
:101BA80023004733236023610123636117B0F0BD2D
:101BB8000E23C95E00292BDB6A4600F06BF900286A
:101BC80024DB8027FF0039003000019DFFF708FC67
:101BD800002833D08022A38920601343A381F023F7
:101BE8001B021D408023206167619B019D42DDD15E
:101BF80030000E23E15E00F08DF80028D6D00322D5
:101C0800A389934301221343A381CFE70C23E55E05
:101C18000F4B2D06ED171D408023DB009C466544C5
:101C280029003000FFF7DCFB002807D08022A389B9
:101C380020601343A38120616561B7E70C22A35E8E
:101C48009A05B3D40322934302221343A381A7E73F
:101C580040FCFFFF70B50C001E000E23C95E150086
:101C680096B0002914DB6A4600F014F900280FDB4F
:101C7800F02301991B021940084B9C4661444B42D2
:101C880059418023DB00002031602B6016B070BD05
:101C9800A38900211B06F4D54023F4E700E0FFFFE9
:101CA80070B5CCB283070DD0531E002A0FD0032580
:101CB80004E00130284206D0013B08D30278A24252
:101CC800F7D170BD1300032B03D8002B14D10020CB
:101CD800F7E7FF220A401502AD182A040B4EAD188B
:101CE80003E0043B0430032BEFD9026808496A403B
:101CF800511891433142F4D0C31802E001309842A0
:101D0800E5D00278A242F9D1DBE7C0468080808026
:101D1800FFFEFEFE002370B5064C05000800236098
:101D280000F069FC431C00D070BD2368002BFBD079
:101D38002B60F9E754040020002370B5064C050019
:101D48000800236000F0FAF9431C00D070BD236836
:101D5800002BFBD02B60F9E75404002070B50C0071
:101D68000E25495F00F082F8002803DB636D1B181D
:101D7800636570BDA389024A1340A381F9E7C04691
:101D8800FFEFFFFF00207047F8B50C001F000C2381
:101D9800C95E05001600CB050AD40A4B320019406B
:101DA8002800A1810E23E15E3B0000F09BF8F8BDFE
:101DB8000E23E15E0022022300F080F80C23E15E8E
:101DC800EBE7C046FFEFFFFF70B50C000E25495F3B
:101DD80000F074F8431C07D08023A2895B011343E9
:101DE8001BB26065A38170BDA389024A13401BB270
:101DF800F8E7C046FFEFFFFF10B50E23C95E00F0FD
:101E080023F810BD0B1F1B68181F002B00DB704741
:101E18000B58C018FBE7C046002370B5074D0400F7
:101E2800080011002B6000F0E7FB431C00D070BDD8
:101E38002B68002BFBD02360F9E7C0465404002030
:101E480010B500F0D7FB10BD002370B5064C050097
:101E58000800236000F0CCFB431C00D070BD236851
:101E6800002BFBD02B60F9E75404002070B5040068
:101E7800080011001A000023054D2B6000F0BEFB7E
:101E8800431C00D070BD2B68002BFBD02360F9E702
:101E980054040020002370B5074D04000800110009
:101EA8002B6000F0A6FB431C00D070BD2B68002BF4
:101EB800FBD02360F9E7C0465404002070B5040045
:101EC800080011001A000023054D2B6000F095FB57
:101ED800431C00D070BD2B68002BFBD02360F9E7B2
:101EE8005404002070B50400080011001A000023F3
:101EF800054D2B6000F083FB431C00D070BD2B68A0
:101F0800002BFBD02360F9E75404002003460B4361
:101F18007FD4002243088B4274D303098B425FD3DA
:101F2800030A8B4244D3030B8B4228D3030C8B4206
:101F38000DD3FF22090212BA030C8B4202D31212EC
:101F4800090265D0030B8B4219D300E0090AC30BC1
:101F58008B4201D3CB03C01A5241830B8B4201D36E
:101F68008B03C01A5241430B8B4201D34B03C01A57
:101F78005241030B8B4201D30B03C01A5241C30ACF
:101F88008B4201D3CB02C01A5241830A8B4201D340
:101F98008B02C01A5241430A8B4201D34B02C01A2A
:101FA8005241030A8B4201D30B02C01A5241CDD2CF
:101FB800C3098B4201D3CB01C01A524183098B421A
:101FC80001D38B01C01A524143098B4201D34B0103
:101FD800C01A524103098B4201D30B01C01A524166
:101FE800C3088B4201D3CB00C01A524183088B42ED
:101FF80001D38B00C01A524143088B4201D34B00D6
:10200800C01A5241411A00D2014652411046704747
:102018005DE0CA0F00D04942031000D3404253404C
:1020280000229C4603098B422DD3030A8B4212D30C
:10203800FC22890112BA030A8B420CD3890192113E
:102048008B4208D3890192118B4204D389013AD07B
:10205800921100E08909C3098B4201D3CB01C01A50
:10206800524183098B4201D38B01C01A5241430963
:102078008B4201D34B01C01A524103098B4201D351
:102088000B01C01A5241C3088B4201D3CB00C01ABE
:10209800524183088B4201D38B00C01A5241D9D2D6
:1020A80043088B4201D34B00C01A5241411A00D257
:1020B8000146634652415B10104601D34042002B53
:1020C80000D54942704763465B1000D3404201B5D2
:1020D8000020FEF735F902BD0029F8D016E7704751
:1020E800F0B5CE469946030C9C46130447461B0C94
:1020F8001D000E0061460404240C80B50700100C76
:102108004B436543414360432C0CC01824188C464C
:10211800A34203D980235B029846C44449467943C5
:102128005643230C2D042D0C89196344240460198B
:10213800C918C0BCB946B046F0BDC046044A030041
:102148001068002802D0C318136070470148FAE7E6
:102158005804002060040020FEE7C04610B5722035
:102168000421024A01F038F9002010BD7C0000204B
:1021780073B56B46DE1D01230E4C337023680025B2
:1021880001332360012900D1057800F0E5FA63687E
:102198005B196360A3685B19A360E3685B19E3607C
:1021A80000F0E2FA32000121722001F015F9002056
:1021B80076BDC0467C00002073B56B4601240E4DE9
:1021C800DE1D2B6834701B192B60A14200D10478E6
:1021D80000F0C2FA6B6863436B60AB686343AB6043
:1021E800EB685C43EC6000F0BFFA3200012172201A
:1021F80001F0F2F8002076BD7C000020F0B5CFB0E9
:1022080012221390019114A8A249FEF7E7F9A24AF5
:10221800136801331360019B0C2B07D07220112126
:1022280014AA01F0D9F800204FB0F0BD9B4C9C4E89
:102238009C4F9D4D20229D4922A81F941E952096B3
:102248002197FEF7CBF900239949019A2BA82A93E5
:10225800FEF7C4F90A2300210193964B06940793CD
:10226800954B96480493964B964A0A93964B974CEF
:102278000293974B0B970393964B09960893964BAB
:102288000593964B10265D196940F14114270C19E6
:102298006340FB41ED1869400C950D001821CD41B4
:1022A800641963400131CB410E94059C0F93A446F9
:1022B800069B614663445A40F24110184140F94177
:1022C8000D955D1818236A40DA410695089D10920D
:1022D800AC46821811925140099A039B6244192016
:1022E8005340F341C1411000029A3400D6182A0025
:1022F8007240FA41851818206B40C341F6187240A5
:1023080012931300039505000130C3410A9A0893FC
:1023180094460B9B63449C466246049B53401800BA
:10232800E041079BC4180A9B6340FB419C446246FA
:102338005040E8412F000C9D24186D186840083F54
:10234800F841361804377140F94119226D18634075
:102358006840D34102001820C2410492B21851408B
:102368000130C141102602920591069A0899501829
:102378000D99089A4140F14164186240FA41801869
:10238800069041401820C141641862400130C241A2
:1023980007940892039A0E9CD018109A4240F24172
:1023A800A4186340FB41C61818207240C241099620
:1023B8001926A4186340F3410A930F9B129E9C446C
:1023C80063465E401023DE41119B98190F9B4340E2
:1023D800FB419C4467467E400B971827FE418019B5
:1023E8003700039619264340F341019E013E0196AA
:1023F800002E00D046E74B920A9A3E9545926246D7
:1024080041923200049D4A914D950799029D499148
:1024180048950899059D449143950999069D4694C8
:1024280042933F9540914C9747903EAB1EAC19683C
:1024380010590432091802C3402AF8D12EAC2000E2
:102448003EA9FEF7CBF80023254D19AA595DE05C9B
:10245800414099540133112BF8D10024214B0199A3
:10246800019DC85813994959884201D10134E4B2F1
:102478000199043101910C29F1D10531032C01D0C6
:10248800112114AA033C63425C41722000F0A4FFAE
:10249800E0B2C9E6F83400087C0000206E642033FE
:1024A800322D62797465206B657870610A35000891
:1024B8002B35000813461325F1B6E11913155712E9
:1024C80022495819BAD5911053683182614188243C
:1024D8001301024575997091332B16528A17672498
:1024E800503400088C00002010B50B48FDF72AFF77
:1024F800FDF758FF094B0A4C584020616060FDF712
:1025080051FF084B58406061A060FDF74BFF064B38
:102518005840A061E06010BD399A9A0015CD5B075C
:102528007C0000202A9AB70E3F6713161923C0466D
:10253800013B002BFBD17047F7B501236A46124DCA
:1025480093712B68002701332B60012900D107788C
:1025580000F002F900242B006A461033E3181B78B8
:1025680001347B40D61DD371FFF7E0FF0C2CF2D16C
:10257800337800F0F9F86B46012172209A1D00F0BB
:102588002BFF0020FEBDC0467C00002010B500F0E7
:1025980037F800F061F800F09FF800F0A5FEFFF7AB
:1025A800A3FF0C210D4A612000F098FE01210C4A7E
:1025B800742000F093FE01210A4A6D2000F08EFE7F
:1025C8000121094A702000F089FE01217120074A83
:1025D80000F084FE00F0A0FEFCE7C04605220008DB
:1025E80079210008C121000841250008652100085B
:1025F800704770477047704770477047704770471B
:10260800F0B59027002401250326042397B0FF0581
:10261800380005A9059306950794089600F042FB33
:10262800102305A93800059306950794089600F02D
:1026380039FB05230AA80B930A960D94139400F00E
:10264800C9F80723210001A8019302950394049473
:1026580000F09EFA17B0F0BD802270B51B4C9202B4
:10266800636988B0134363616369902013400193E1
:10267800019BC023DB00012503260393022303A942
:10268800C005049305950795069600F00BFB80227C
:10269800A369D2011343A361A3690D4813400293B0
:1026A800029B236BB3431D430A4B256303609623A8
:1026B8001B02436000238360C360036183610C33A2
:1026C800436100F059FC08B070BDC04600100240DC
:1026D800980000200038014080211E4BF0B55A694F
:1026E80089020A435A615B6987B00B4090240093C2
:1026F800012500260327009B8023E405200001A96B
:10270800019302950396049700F0CCFA1023200059
:1027180001A9019302950396049700F0C3FA0423D4
:10272800200001A9019302950396049700F0BAFAD4
:1027380032002000802100F067FB2A0020001021D1
:1027480000F062FB2A000421200000F05DFB07B0C6
:10275800F0BDC04600100240902010B50122802133
:10276800C00500F051FB10BD902010B5002280215B
:10277800C00500F049FB10BD37B508246B46DD1DC8
:10278800012232232900064800F028FC002801D144
:1027980028783EBD034A136A23431362EEE7C04616
:1027A800980000200038014007B56B46D91D087015
:1027B80001220248024B00F087FC07BD9800002068
:1027C80088130000024B1868421C1A607047C04604
:1027D80008010020F0B50368040085B0DB072FD49A
:1027E80023689B0700D581E023681B0700D5BCE060
:1027F80023685B0700D5DFE02368DB061AD562692A
:102808000423B44D012A00D048E1696B02270B4329
:102818006B636B6B1A436A63FFF7D4FF06006B6B3D
:102828003B4200D133E1F8216A6BA3698A43DB009C
:1028380013436B63216A002900D057E100202AE086
:102848000C22A44D6B681340042B06D06B68134010
:10285800082B0AD16B68DB0307D52B689B03BFD510
:102868006368002BBCD1012015E06368012B14D1EB
:1028780080232A685B0213432B60FFF7A3FF80279E
:102888000600BF022B683B42AAD1FFF79BFF801BC3
:102898006428F7D9032005B0F0BD002B16D12B68AA
:1028A8008D4A802713402B602B688C4ABF02134047
:1028B8002B60FFF787FF06002B683B4200D18FE7AC
:1028C800FFF780FF801B6428F6D9E3E7052B05D1C5
:1028D80080232A68DB0213432B60C9E72B687E4AF2
:1028E80013402B602B687D4A1340C5E70C22794DB5
:1028F8006B68134206D06B681340082B10D16B68C5
:10290800DB030DD42B689B0702D5E368012BAAD102
:10291800F8212A6823698A43DB0013432B6063E7A5
:10292800E2680123002A0FD02A68022713432B608C
:10293800FFF748FF06002B683B42E9D1FFF742FF4B
:10294800801B0228F7D9A5E72A6802279A432A603C
:10295800FFF738FF06002B683B4200D144E7FFF73A
:1029680031FF801B0228F6D994E7E2690123594D0B
:10297800002A10D06A6A022713436B62FFF722FF0E
:1029880006006B6A3B4200D032E7FFF71BFF801B53
:102998000228F6D97EE76A6A02279A436A62FFF735
:1029A80011FF06006B6A3B4200D121E7FFF70AFFDF
:1029B800801B0228F6D96DE780220021454D52057B
:1029C800EB690091134208D1EB691343EB61EB69A2
:1029D80013400393039B012300938027404E7F00FD
:1029E80033683B4215D0A368012B22D12A6A1343CE
:1029F8002B62FFF7E7FE022706002B6A3B423FD017
:102A0800009B012B00D0F7E6EB69364A1340EB61D7
:102A1800F2E633683B433360FFF7D4FE0190336836
:102A28003B42E0D1FFF7CEFE019BC01A6428F6D9DD
:102A380030E70122002B14D12B6A022793432B6223
:102A48002B6A033293432B62FFF7BCFE06002B6A06
:102A58003B42D5D0FFF7B6FE234B801B9842F6D9F0
:102A680018E7052B05D1296A013B0B432B622B6A1A
:102A7800BDE72B6A934304222B622B6A9343B7E783
:102A8800FFF7A0FE184B801B9842B6D902E7FFF764
:102A980099FE801B022800D8C1E6FBE6053203D167
:102AA8006A6B9A436A63BEE66A6B02271343012284
:102AB8006B636B6B93436B63FFF784FE06006B6B72
:102AC8003B4200D1B6E6FFF77DFE801B0228F6D90F
:102AD800E0E6C04600100240FFFFFEFFFFFFFBFFDD
:102AE80000700040FFFFFFEF881300000C22254D07
:102AF8006B681340082B00D1B5E62B68224A1340B7
:102B08002B6002292FD1FFF75DFE80270600BF0446
:102B18002B683B4221D10F22EB6A80269343E26A5D
:102B2800B6041343EB62616AA36A6A680B431749E8
:102B38000A4013436B6080232A685B0413432B60AD
:102B4800FFF740FE04002B68334200D076E6FFF71B
:102B580039FE001B0228F6D99CE6FFF733FE801BDE
:102B68000228D5D996E6FFF72DFE80260400B60484
:102B78002B68334200D161E6FFF724FE001B0228D0
:102B8800F6D987E600100240FFFFFFFEFFFFC2FFF5
:102B9800F7B501223E4D04002B680F0013408B420D
:102BA80012D32268930719D4D2071FD401232A68A5
:102BB8001A40BA425DD823685B0761D4E122354BDD
:102BC800D20300201A6008E02B6893430B432B6064
:102BD8002B6813408B42E4D00120FEBDF0202E4923
:102BE8004B688343A06803434B60DDE72A4E626865
:102BF8003368012A1AD19B03EED5032173688B43EE
:102C080013437360FFF7DEFD63680190012B15D154
:102C18000C2273681340042BC8D0FFF7D3FD019B27
:102C2800C01A1E4B9842F3D90320D6E7022A02D1D4
:102C38009B01E2D4D0E79B07DFD4CDE7022B12D06B
:102C48000C2273681342B1D0FFF7BCFD019BC01A78
:102C5800124B9842F4D9E7E7FFF7B4FD019BC01A7D
:102C68000E4B9842E0D80C2273681340082BF3D11E
:102C78009CE72A689A432A602A681A429BD0ABE7E5
:102C8800054A074953680B40E1680B43536095E7D1
:102C980000200240000000200010024088130000BD
:102CA800FFF8FFFF0023F0B587B00A681400DC4086
:102CB80001D107B0F0BD012614009E4034400294B3
:102CC800324200D192E04A681500019210229543E1
:102CD8000395022D0FD107240F251C40A400A54001
:102CE800DA0892008218176AAF43BC460F69A740FA
:102CF80064462743176203225C00A240D543AC46D2
:102D0800032507689743019A2A40A240039D3A4346
:102D1800013D0260012D0DD8624685681540CA68DC
:102D2800A2402A438260019A456812099A40B54335
:102D38002A4342606246C56815408A68A2408024DA
:102D48002A43C260019A640522424FD00125284ACD
:102D580090279469FF052C43946192699C082A4046
:102D68000592059A234AA400A4180F2202351D4093
:102D7800AD00AA40A66896430022B8420CD01E4F68
:102D88000132B84208D01D4F0132B84204D01C4F5E
:102D98000332B84200D1023AAA403243A260194A2B
:102DA800029C1668029D019FE4433543FF0301D44A
:102DB8003500254015605668029D019F3543BF03C5
:102DC80001D43500254055609668029D019F354322
:102DD800FF0201D4350025409560D568029E019F09
:102DE8002E43BF0201D425402E00D66001335CE794
:102DF800001002400000014000040048000800489C
:102E0800000C004800040140002A01D0816170478D
:102E18008162FCE7F7B504000E00170001932568EE
:102E2800EB6933409B1B5A425341BB4201D00020FF
:102E380017E0089B0133F3D0089B002B12D12B68B5
:102E48000C4A032013402B60AB68A332FF32934334
:102E58002200AB602023693213705370002368345A
:102E68002370FEBDFFF7AEFC019BC01A089B984279
:102E7800D5D9E4E75FFEFFFF030070B59A681D69C6
:102E880004682A435D69C1692A432068334D0A43AF
:102E9800284002432260626831481D6A0240D868AF
:102EA800024362609A69A0682A432E4D2840024373
:102EB80003208025A2602C4A2D02126B0240013AA1
:102EC800022A37D82948805CA94214D108280FD88B
:102ED800FDF7A2F9320E050E320E0E0E09005968E2
:102EE800234B48082CE05968802348085B0227E0F8
:102EF8000120002329E008281AD8FDF78DF90F19B9
:102F080005190F191919140059681A4B4808C018DF
:102F1800FDF78CF980B2E06000201DE05968E123DC
:102F28004808DB03F3E75968802348081B02EEE7EB
:102F3800012011E0A942F1D15968E12348081B0496
:102F4800C018FDF773F983B2002019000F221B0780
:102F580091435B0F0B43E36070BDC046F369FFFF0D
:102F6800FFCFFFFFFFF4FFFF0010024061340008AD
:102F78000048E8010024F400F8B5041E01D101203E
:102F8800F8BD060069363378DAB2002B02D10300A7
:102F980068331A70242301273370256820002B68B2
:102FA800BB432B60FFF768FFB842E8D06B680A4A5A
:102FB8000020134008226B60AB689343AB602B681A
:102FC80022001F4320232F606A32E0666834337082
:102FD80013702070D4E7C046FFF7FFFFF0B585B047
:102FE800039303006A3316001A7804000D000220C8
:102FF800202A3BD10138002938D0002E36D0802233
:10300800A1685201914204D12269002A01D10542E6
:103018002CD12200683211780220012926D0012102
:1030280011700022E26622321A70FFF7CBFB2300F0
:103038008021A26858331E805E80029049010433C3
:103048008A4217D12269002A12D11E4A1A80802783
:103058001E887F0122005A32138898B2002B10D1A3
:10306800230020226A3368341A70207005B0F0BD3E
:10307800FF22EBE7002AEAD12269002AF8D07F2252
:10308800E4E713882021013B9BB21380039B0022B5
:1030980000932000029BFFF7BDFE002810D1A26814
:1030A8002368BA4207D12269002A04D19B8C334095
:1030B8002B800235CEE79B8C33402B700135C9E756
:1030C8000320D3E7FF010000F0B5070085B00393A4
:1030D80069373B7804000D0016000220202B46D1EA
:1030E8000138002943D0002A41D08023A2685B011F
:1030F8009A4204D12369002B01D1014237D1230020
:1031080068331A780220012A31D001221A7000236C
:10311800E36621333B70FFF755FB230050331E80D5
:103128005E80802602907601210052310B889AB287
:10313800002B0DD1039B402100932000029BFFF739
:1031480069FE002812D1202368343B7020700EE0FD
:103158000B880022013B9BB20B80039B80210093CC
:103168002000029BFFF756FE002802D0032005B07E
:10317800F0BDA3682268B34208D12369002B05D1AA
:103188002B880235DB05DB0D1385CDE72B78013560
:103198001385C9E701207047F8B50D0014000F2703
:1031A800FFF702FB6519AC4203D10A20FFF7FCFACE
:1031B800F8BD2378054E1B09F05CFFF7F5FA237874
:1031C80001343B40F05CFFF7EFFAECE764340008A9
:1031D80007B56B46DA1D044B72201B68012113707A
:1031E800FFF7DAFF00200EBD0C0100200322114B6F
:1031F800944618680023F0B50F4C99B0C6B2B34294
:1032080009DB614641436A467220C9B2FFF7C4FF31
:10321800002019B0F0BD654669465D431A01175D87
:10322800A2184F555768127B6D4401336F70AA700E
:10323800DBB2E4E70C0100201001002070B5140097
:10324800A31A984201DC00201FE04D780B782E006D
:10325800303EF6B2092E0CD826701D00303DEDB276
:10326800092D15D823782D012B4323700231013401
:10327800E6E72E00413E052E02D8373D2570ECE7E3
:103288002E00613E052E01D9012070BD573DF5E79E
:103298001D00413D052D03D8373B25781B01E3E789
:1032A8001D00613D052DEFD8573BF6E7F0B5094FF6
:1032B80006003D6801201F2D0BDC3F2909D8064C6C
:1032C80028010655201841608260037300200135EB
:1032D8003D60F0BD0C0100201001002010B5002356
:1032E800FFF7E4FF10BD000010B50021074A762063
:1032F800FFF7F4FF0021064A7720FFF7EFFF0021D0
:103308007920044AFFF7EAFF10BDC0469D31000846
:10331800F5310008D9310008F0B50025B3B0FFF742
:103328002BFA2B4B2B491A68AA4241DC3ED00127C5
:10333800284C2D016619337B3B4218D000236A467E
:103348001372FFF719FA48226B469B181870FFF79B
:1033580013FA49226B469B18187002AA380012A962
:10336800FFF76CFF002821D16B461B7A736000269B
:1033780063195B685B00B34220D8FFF7FDF90A28A0
:1033880001D00D2812D16419656802AA280012A973
:10339800FFF754FF002809D1E9B2A36802A89847AB
:1033A80001AA107001217A20FFF7F6FE33B0F0BDB4
:1033B8002C010C5D8442BAD00135B5E7FFF7DCF982
:1033C8000A28F3D00D28F1D012ABF0540136CFE71C
:1033D8000C0100201001002010B5002A01D0FFF7D1
:1033E800DBFE10BD002103E00B4B5B58435004315A
:1033F8000A480B4B42189A42F6D30A4A02E00023C5
:1034080013600432084B9A42F9D300E000BFFDF77D
:1034180033F8FFF7BBF8FEE700360008000000208D
:1034280060000020600000205C040020FEE700002F
:10343800F8B5C046F8BC08BC9E467047F8B5C0460B
:08344800F8BC08BC9E46704769
:103450003C40B55DD7E116EE157610EFBA70367DBB
:103460004904080230313233343536373839414275
:1034700043444546EE1A0008F4190008F419000800
:10348000F4190008F4190008F4190008F4190008E8
:10349000F4190008F4190008F4190008F4190008D8
:1034A000501A0008081A0008F4190008F419000856
:1034B000F4190008F4190008081A0008F4190008A3
:1034C000F4190008F4190008F41900086A19000832
:1034D000301A0008821A0008F4190008F4190008CC
:1034E000641A0008F4190008301A0008F4190008DA
:1034F000F4190008FC1A00084661696C757265547D
:103500006F4C61756E6368210A008A176724332B3C
:1035100016527599709122495819614188241315E2
:103520005712536831821346132500BAD5911013F0
:10353000010245F1B6E119005245454E54206D6136
:103540006C6C6F632073756363656564656400000C
:103550002E2E2F2E2E2F2E2E2F2E2E2F2E2E2F2E86
:103560002E2F6E65776C69622F6C6962632F73749E
:10357000646C69622F72616E642E63002C20667524
:103580006E6374696F6E3A200000000061737365AA
:103590007274696F6E2022257322206661696C65E2
:1035A000643A2066696C6520222573222C206C69A0
:1035B0006E65202564257325730A0000232D302BAA
:1035C00020000000686C4C006566674546470000B7
:1035D0003031323334353637383941424344454649
:1035E000000000003031323334353637383961620B
:0835F000636465660000000041
:0435F800FD010008C9
:0435FC00D1010008F1
:1036000000127A00080000200000000014030020CF
:103610007C030020E4030020000000000000000004
:10362000000000000000000000000000000000009A
:10363000000000000000000000000000000000008A
:10364000000000000000000000000000000000007A
:103650000000000000000000030000001403002030
:04000005080033EDCF
:00000001FF
