:020000040800F2
:1000000000100020511900089919000899190008DA
:1000100099190008991900089919000800000000B2
:100020000000000000000000000000009919000816
:100030009919000800000000991900089919000892
:1000400000000000000000000000000000000000B0
:1000500000000000000000000000000000000000A0
:100060000000000000000000000000000000000090
:100070000000000000000000000000000000000080
:100080000000000000000000000000000000000070
:100090000000000000000000000000000000000060
:1000A0000000000000000000000000000000000050
:1000B0000000000000000000000000000000000040
:1000C0000000000000000000000000000000000030
:1000D0000000000000000000000000000000000020
:1000E0000000000000000000000000000000000010
:1000F0000000000000000000000000000000000000
:1001000000000000000000000000000000000000EF
:1001100000000000000000000000000000000000DF
:1001200000000000000000000000000000000000CF
:1001300000000000000000000000000000000000BF
:1001400000000000000000000000000000000000AF
:10015000000000000000000000000000000000009F
:10016000000000000000000000000000000000008F
:10017000000000000000000000000000000000007F
:08018000000000000000000077
:100188000448054B10B5834203D0044B002B00D024
:10019800984710BD04000020040000200000000063
:1001A80006480749091A8B10C90FC91810B5491014
:1001B80003D0044B002B00D0984710BD040000204A
:1001C800040000200000000010B5074C2378002B25
:1001D80009D1FFF7D5FF054B002B02D0044800E0FA
:1001E80000BF0123237010BD0400002000000000A0
:1001F8009C190008054B10B5002B03D0044905488D
:1002080000E000BFFFF7CCFF10BDC04600000000B3
:10021800080000209C19000802B4714649084900EA
:10022800095C49008E4402BC7047C046002243085E
:100238008B4274D303098B425FD3030A8B4244D3A6
:10024800030B8B4228D3030C8B420DD3FF220902E8
:1002580012BA030C8B4202D31212090265D0030BA7
:100268008B4219D300E0090AC30B8B4201D3CB039D
:10027800C01A5241830B8B4201D38B03C01A5241DF
:10028800430B8B4201D34B03C01A5241030B8B42E1
:1002980001D30B03C01A5241C30A8B4201D3CB02CC
:1002A800C01A5241830A8B4201D38B02C01A5241B1
:1002B800430A8B4201D34B02C01A5241030A8B42B4
:1002C80001D30B02C01A5241CDD2C3098B4201D3CC
:1002D800CB01C01A524183098B4201D38B01C01A4A
:1002E800524143098B4201D34B01C01A52410309C1
:1002F8008B4201D30B01C01A5241C3088B4201D370
:10030800CB00C01A524183088B4201D38B00C01A1C
:10031800524143088B4201D34B00C01A5241411A43
:1003280000D20146524110467047FFE701B5002050
:1003380000F0F0F802BDC0460029F7D076E7704714
:1003480003460B437FD4002243088B4274D303092E
:100358008B425FD3030A8B4244D3030B8B4228D3CF
:10036800030C8B420DD3FF22090212BA030C8B42F5
:1003780002D31212090265D0030B8B4219D300E095
:10038800090AC30B8B4201D3CB03C01A5241830B1A
:100398008B4201D38B03C01A5241430B8B4201D3CA
:1003A8004B03C01A5241030B8B4201D30B03C01AF3
:1003B8005241C30A8B4201D3CB02C01A5241830A6D
:1003C8008B4201D38B02C01A5241430A8B4201D39C
:1003D8004B02C01A5241030A8B4201D30B02C01AC6
:1003E8005241CDD2C3098B4201D3CB01C01A52412D
:1003F80083098B4201D38B01C01A524143098B42B6
:1004080001D34B01C01A524103098B4201D30B019E
:10041800C01A5241C3088B4201D3CB00C01A5241C3
:1004280083088B4201D38B00C01A524143088B4288
:1004380001D34B00C01A5241411A00D20146524121
:10044800104670475DE0CA0F00D04942031000D340
:100458004042534000229C4603098B422DD3030A95
:100468008B4212D3FC22890112BA030A8B420CD3A5
:10047800890192118B4208D3890192118B4204D3CE
:1004880089013AD0921100E08909C3098B4201D34E
:10049800CB01C01A524183098B4201D38B01C01A88
:1004A800524143098B4201D34B01C01A52410309FF
:1004B8008B4201D30B01C01A5241C3088B4201D3AE
:1004C800CB00C01A524183088B4201D38B00C01A5B
:1004D8005241D9D243088B4201D34B00C01A524132
:1004E800411A00D20146634652415B10104601D3BF
:1004F8004042002B00D54942704763465B1000D349
:10050800404201B5002000F005F802BD0029F8D0EE
:1005180016E770477047C04670B50D4B0D4D5E1B12
:10052800B610AB4205D0002408CD01349847A64246
:10053800FAD801F02FFA084B084D5E1BB610AB42F3
:1005480005D0002408CD01349847A642FAD870BDDA
:10055800281A0008281A00082C1A0008281A000867
:10056800F0B505000F2A31D903273E000D430C00D2
:1005780003002E402F4234D11500103D2D09AC4602
:100588002F013F1865685D60A5689D60E568DD60BE
:10059800256810341D601D001033BD42F2D1654638
:1005A8000F230C2401352D01491913404519144214
:1005B8001AD0043B9B0801339B008C59AC5104367C
:1005C8009E42FAD10323AD1989191A40561E002AF2
:1005D80006D00023CC5C1A00EC5401339642F9D1C2
:1005E800F0BD0500561EF4E71A00EFE7F0B5CBB0F2
:1005F80005000E0011229F4915A8FFF7B1FF00233F
:100608009D491C00102E07D07220112115AA01F057
:1006180095F901204BB0F0BD5A5CE85C824201D1EB
:100628000134E4B20133102BF6D1102CECD10025A3
:10063800924B934F1B93934E934B202293491EA8A2
:100648001C931D971A96FFF78BFF0C22904927A839
:100658002695FFF785FF0A2301938E4B0B97089386
:100668008D4B029405938D4B09340A938C4B8D4F17
:1006780006938D4B8D490493834B8D4A09938D4B7B
:100688008D489C467D4B039407938C4B029CF6182F
:100698007540E541142428184340E341F618754095
:1006A8000C962E001825EE4180190E9043400398B1
:1006B8000D96C3410F93079B029863445A40C24169
:1006C800501861464140E1415B185A40EA4107939E
:1006D80010928318049A119394465940039B029AE6
:1006E800D941099B1291634418003B004340D34110
:1006F800069A0B9F9D1862466A40E24186181820A8
:100708007340C341ED181393039B6A40DA410A9B77
:1007180009969C46059B67447B4006001800029B8F
:100728002100D841089BC41863466340CB41F9189F
:100738004840F0410B911299039E8C46241863405F
:10074800F3410C9E029F66447040F84114272D180F
:100758006940F9417618704007001820C741ED1923
:10076800059769400695039D029FE941079D8C46C0
:10077800A9180D9D4D40FD41142764196240FA41A6
:1007880089184D40C541641962400894039C07913B
:10079800E2410492099A029CD118109A4A40E24117
:1007A8000E9CA0184340FB41CC1818216240CA4156
:1007B800039980184340CB410B990A930F9B0994E6
:1007C8005B180B930B99139B4B401C00029BDC415D
:1007D800119B19190F9B4B40FB410B9FFF187C4045
:1007E8000B9727001824E741039CC9194B40E341A4
:1007F800019C013C0194002C00D047E7059C4792DE
:100808004994069C0A9A449464463F94079C4192F2
:100818003B94089C0B9A4594049C3D924094099CF7
:10082800019A3C943E933A96469542904897439154
:100838003AAB1AAC196810590432091802C3402A95
:10084800F8D12AAC20003AA9FFF78AFE1C4815AA5D
:10085800019B01991B5C615C4B4001998B540B0017
:1008680001330193112BF3D17220190001F066F8BE
:100878000020CFE6E8190008B41900086E64203398
:100888007465206B65787061322D6279FA190008F9
:100898001B1A00081346132524B6E11922495819D2
:1008A80053683182131010197599709113155712E6
:1008B800BAD59110332B1652614188248A176724C0
:1008C800C4190008F0B587B006000F00039201298B
:1008D80051DD2A4BCD18AD0045193420FFF730FD06
:1008E8000021274B274A43439B1804932C687B1EFF
:1008F8000293234B3700C9188B08019300239C46A9
:1009080063460198012243400320034003989B005B
:1009180018580B0094447A6860405340C3180593F4
:100928006309180024019300D208624043409B18D1
:10093800059A3C6853401C19029B10C79C45DFD39D
:100948000298019B326843400320034003989B00B0
:100958001B580800634050401B1867099000240189
:10096800D208624078402C68801843401C19049BC8
:100978002C609942BDD107B0F0BDC046FFFFFF3FD4
:10098800B979379E56DA4CB5F0B587B004000091B6
:10099800029201294DDD3420FFF7D2FC2649009A46
:1009A800236852189200A118043AA218063003913D
:1009B8000492224A04994243944692080192009A6A
:1009C800571E0325019A0E687A402A40029D92001C
:1009D8005559624675405A40AA1805927209150081
:1009E80036019A00DB0873406A40D218059B013F24
:1009F8005A404B6804399B1A8B60002FE1D1039A47
:100A080099001268013855094D401601D9087140FE
:100A180003266918019D3540029EAD00AD596A4014
:100A280065466B40D21823684A409B1A2360002809
:100A3800BFD107B0F0BDC046FFFFFF3FB979379E71
:100A4800F0B507000C00012685B007291FD903233C
:100A58000E001E4019421DD10F4B89081A00019340
:100A68003500FFF791FF28002100FFF74FFD019A9D
:100A78007B5C525D0135534002AAD371D3797B5414
:100A8800102DF0D13A002100722000F057FF3000FD
:100A980005B0F0BD0126FAE7B41900080023834227
:100AA80000D17047C0460133F9E70000F0B50700F0
:100AB8000C00012685B007292BD903230E001E4000
:100AC800194229D100F0FAF8350028002100FFF773
:100AD8001DFD7B180193114B0F200093009A7B5C3E
:100AE800AA5C0135534002AAD371FFF7D7FF02ABC6
:100AF800DB79019A1370102DE7D100F0E7F8380080
:100B0800009AA108FFF7DEFE3A002100722000F0EB
:100B180015FF300005B0F0BD0126FAE7B41900084A
:100B280010B500F01FF800F049F800F087F800F061
:100B38008DFE0821084A652000F082FE0821074A38
:100B4800642000F07DFE10216320054A00F078FE45
:100B580000F094FEFCE7C046B50A0008490A000800
:100B6800F5050008F0B59027002401250326042385
:100B780097B0FF05380005A90593069507940896D0
:100B880000F042FB102305A9380005930695079449
:100B9800089600F039FB05230AA80B930A960D94D2
:100BA800139400F0C9F80723210001A801930295C6
:100BB8000394049400F09EFA17B0F0BD802270B53B
:100BC8001B4C9202636988B0134363616369902088
:100BD80013400193019BC023DB00012503260393E7
:100BE800022303A9C005049305950795069600F00E
:100BF8000BFB8022A369D2011343A361A3690D48AB
:100C080013400293029B236BB3431D430A4B256396
:100C1800036096231B02436000238360C360036163
:100C280083610C33436100F059FC08B070BDC046C5
:100C380000100240200000200038014080211E4B97
:100C4800F0B55A6989020A435A615B6987B00B405B
:100C580090240093012500260327009B8023E405A8
:100C6800200001A9019302950396049700F0CCFA9D
:100C78001023200001A9019302950396049700F020
:100C8800C3FA0423200001A901930295039604974F
:100C980000F0BAFA32002000802100F067FB2A0039
:100CA8002000102100F062FB2A000421200000F03F
:100CB8005DFB07B0F0BDC04600100240902010B5A3
:100CC80001228021C00500F051FB10BD902010B515
:100CD80000228021C00500F049FB10BD37B508246B
:100CE8006B46DD1D012232232900064800F028FC4E
:100CF800002801D128783EBD034A136A23431362B2
:100D0800EEE7C046200000200038014007B56B46DA
:100D1800D91D087001220248024B00F087FC07BD6C
:100D28002000002088130000024B1868421C1A603B
:100D38007047C04690000020F0B50368040085B0F5
:100D4800DB072FD423689B0700D581E023681B07A6
:100D580000D5BCE023685B0700D5DFE02368DB062D
:100D68001AD562690423B44D012A00D048E1696BA1
:100D780002270B436B636B6B1A436A63FFF7D4FF5D
:100D880006006B6B3B4200D133E1F8216A6BA36923
:100D98008A43DB0013436B63216A002900D057E1C3
:100DA80000202AE00C22A44D6B681340042B06D0C7
:100DB8006B681340082B0AD16B68DB0307D52B68D7
:100DC8009B03BFD56368002BBCD1012015E0636885
:100DD800012B14D180232A685B0213432B60FFF791
:100DE800A3FF80270600BF022B683B42AAD1FFF76A
:100DF8009BFF801B6428F7D9032005B0F0BD002BAA
:100E080016D12B688D4A802713402B602B688C4A9B
:100E1800BF0213402B60FFF787FF06002B683B4299
:100E280000D18FE7FFF780FF801B6428F6D9E3E73E
:100E3800052B05D180232A68DB0213432B60C9E701
:100E48002B687E4A13402B602B687D4A1340C5E708
:100E58000C22794D6B68134206D06B681340082B3F
:100E680010D16B68DB030DD42B689B0702D5E368B0
:100E7800012BAAD1F8212A6823698A43DB0013438E
:100E88002B6063E7E2680123002A0FD02A68022753
:100E980013432B60FFF748FF06002B683B42E9D15C
:100EA800FFF742FF801B0228F7D9A5E72A68022727
:100EB8009A432A60FFF738FF06002B683B4200D1AF
:100EC80044E7FFF731FF801B0228F6D994E7E2696F
:100ED8000123594D002A10D06A6A022713436B6216
:100EE800FFF722FF06006B6A3B4200D032E7FFF7AC
:100EF8001BFF801B0228F6D97EE76A6A02279A43FD
:100F08006A62FFF711FF06006B6A3B4200D121E7D6
:100F1800FFF70AFF801B0228F6D96DE7802200211F
:100F2800454D5205EB690091134208D1EB69134313
:100F3800EB61EB6913400393039B01230093802724
:100F4800404E7F0033683B4215D0A368012B22D165
:100F58002A6A13432B62FFF7E7FE022706002B6A73
:100F68003B423FD0009B012B00D0F7E6EB69364AA5
:100F78001340EB61F2E633683B433360FFF7D4FE7E
:100F8800019033683B42E0D1FFF7CEFE019BC01AC7
:100F98006428F6D930E70122002B14D12B6A0227E6
:100FA80093432B622B6A033293432B62FFF7BCFEF9
:100FB80006002B6A3B42D5D0FFF7B6FE234B801BB9
:100FC8009842F6D918E7052B05D1296A013B0B434E
:100FD8002B622B6ABDE72B6A934304222B622B6A90
:100FE8009343B7E7FFF7A0FE184B801B9842B6D98A
:100FF80002E7FFF799FE801B022800D8C1E6FBE64E
:10100800053203D16A6B9A436A63BEE66A6B0227AC
:10101800134301226B636B6B93436B63FFF784FE8F
:1010280006006B6B3B4200D1B6E6FFF77DFE801BE6
:101038000228F6D9E0E6C04600100240FFFFFEFF96
:10104800FFFFFBFF00700040FFFFFFEF8813000069
:101058000C22254D6B681340082B00D1B5E62B6890
:10106800224A13402B6002292FD1FFF75DFE80270B
:101078000600BF042B683B4221D10F22EB6A802671
:101088009343E26AB6041343EB62616AA36A6A682F
:101098000B4317490A4013436B6080232A685B049B
:1010A80013432B60FFF740FE04002B68334200D047
:1010B80076E6FFF739FE001B0228F6D99CE6FFF713
:1010C80033FE801B0228D5D996E6FFF72DFE802631
:1010D8000400B6042B68334200D161E6FFF724FE12
:1010E800001B0228F6D987E600100240FFFFFFFE2A
:1010F800FFFFC2FFF7B501223E4D04002B680F0029
:1011080013408B4212D32268930719D4D2071FD4F5
:1011180001232A681A40BA425DD823685B0761D464
:10112800E122354BD20300201A6008E02B68934374
:101138000B432B602B6813408B42E4D00120FEBD8B
:10114800F0202E494B688343A06803434B60DDE7DA
:101158002A4E62683368012A1AD19B03EED503210F
:1011680073688B4313437360FFF7DEFD6368019078
:10117800012B15D10C2273681340042BC8D0FFF73C
:10118800D3FD019BC01A1E4B9842F3D90320D6E722
:10119800022A02D19B01E2D4D0E79B07DFD4CDE736
:1011A800022B12D00C2273681342B1D0FFF7BCFD9A
:1011B800019BC01A124B9842F4D9E7E7FFF7B4FD38
:1011C800019BC01A0E4B9842E0D80C22736813405A
:1011D800082BF3D19CE72A689A432A602A681A42A6
:1011E8009BD0ABE7054A074953680B40E1680B43BE
:1011F800536095E7002002400000002000100240E4
:1012080088130000FFF8FFFF0023F0B587B00A68D5
:101218001400DC4001D107B0F0BD012614009E4047
:1012280034400294324200D192E04A68150001929B
:10123800102295430395022D0FD107240F251C403A
:10124800A400A540DA0892008218176AAF43BC468A
:101258000F69A74064462743176203225C00A24037
:10126800D543AC46032507689743019A2A40A24014
:10127800039D3A43013D0260012D0DD86246856801
:101288001540CA68A2402A438260019A456812093B
:101298009A40B5432A4342606246C56815408A6849
:1012A800A24080242A43C260019A640522424FD09A
:1012B8000125284A90279469FF052C439461926977
:1012C8009C082A400592059A234AA400A4180F22D4
:1012D80002351D40AD00AA40A66896430022B842D8
:1012E8000CD01E4F0132B84208D01D4F0132B8420F
:1012F80004D01C4F0332B84200D1023AAA4032430C
:10130800A260194A029C1668029D019FE443354376
:10131800FF0301D43500254015605668029D019FE2
:101328003543BF0301D43500254055609668029DBA
:10133800019F3543FF0201D4350025409560D568EB
:10134800029E019F2E43BF0201D425402E00D66085
:1013580001335CE70010024000000140000400482F
:1013680000080048000C004800040140002A01D091
:10137800816170478162FCE7F7B504000E00170031
:1013880001932568EB6933409B1B5A425341BB428A
:1013980001D0002017E0089B0133F3D0089B002BF5
:1013A80012D12B680C4A032013402B60AB68A33280
:1013B800FF3293432200AB602023693213705370CD
:1013C800002368342370FEBDFFF7AEFC019BC01AF2
:1013D800089B9842D5D9E4E75FFEFFFF030070B58C
:1013E8009A681D6904682A435D69C1692A432068AF
:1013F800334D0A43284002432260626831481D6A1F
:101408000240D868024362609A69A0682A432E4D58
:101418002840024303208025A2602C4A2D02126B2B
:101428000240013A022A37D82948805CA94214D1DF
:1014380008280FD8FEF7F0FE320E050E320E0E0EFB
:1014480009005968234B48082CE05968802348084C
:101458005B0227E00120002329E008281AD8FEF7BC
:10146800DBFE0F1905190F191919140059681A4BC1
:101478004808C018FEF7DAFE80B2E06000201DE0E0
:101488005968E1234808DB03F3E7596880234808D3
:101498001B02EEE7012011E0A942F1D15968E123CE
:1014A80048081B04C018FEF7C1FE83B200201900CB
:1014B8000F221B0791435B0F0B43E36070BDC046CF
:1014C800F369FFFFFFCFFFFFFFF4FFFF00100240AB
:1014D800D51900080048E8010024F400F8B5041EF6
:1014E80001D10120F8BD060069363378DAB2002B45
:1014F80002D1030068331A7024230127337025684A
:1015080020002B68BB432B60FFF768FFB842E8D088
:101518006B680A4A0020134008226B60AB6893434B
:10152800AB602B6822001F4320232F606A32E066DD
:101538006834337013702070D4E7C046FFF7FFFF9C
:10154800F0B585B0039303006A3316001A780400D7
:101558000D000220202A3BD10138002938D0002E66
:1015680036D08022A1685201914204D12269002A12
:1015780001D105422CD122006832117802200129BC
:1015880026D0012111700022E26622321A70FFF77C
:10159800CBFB23008021A26858331E805E80029016
:1015A800490104338A4217D12269002A12D11E4AFE
:1015B8001A8080271E887F0122005A32138898B229
:1015C800002B10D1230020226A3368341A7020704F
:1015D80005B0F0BDFF22EBE7002AEAD12269002A14
:1015E800F8D07F22E4E713882021013B9BB21380C7
:1015F800039B002200932000029BFFF7BDFE0028FA
:1016080010D1A2682368BA4207D12269002A04D1FE
:101618009B8C33402B800235CEE79B8C33402B705C
:101628000135C9E70320D3E7FF010000F0B5070043
:1016380085B0039369373B7804000D00160002203B
:10164800202B46D10138002943D0002A41D08023DD
:10165800A2685B019A4204D12369002B01D101429F
:1016680037D1230068331A780220012A31D00122A9
:101678001A700023E36621333B70FFF755FB230004
:1016880050331E805E808026029076012100523100
:101698000B889AB2002B0DD1039B402100932000A8
:1016A800029BFFF769FE002812D1202368343B70A3
:1016B80020700EE00B880022013B9BB20B80039B3D
:1016C800802100932000029BFFF756FE002802D0DD
:1016D800032005B0F0BDA3682268B34208D123698E
:1016E800002B05D12B880235DB05DB0D1385CDE7F3
:1016F8002B7801351385C9E701207047F8B50D002F
:1017080014000F27FFF702FB6519AC4203D10A202A
:10171800FFF7FCFAF8BD2378054E1B09F05CFFF7CC
:10172800F5FA237801343B40F05CFFF7EFFAECE779
:10173800D819000807B56B46DA1D044B72201B68E0
:1017480001211370FFF7DAFF00200EBD940000207E
:101758000322114B944618680023F0B50F4C99B03A
:10176800C6B2B34209DB614641436A467220C9B238
:10177800FFF7C4FF002019B0F0BD654669465D4318
:101788001A01175DA2184F555768127B6D44013333
:101798006F70AA70DBB2E4E7940000209800002084
:1017A80070B51400A31A984201DC00201FE04D78A0
:1017B8000B782E00303EF6B2092E0CD826701D008C
:1017C800303DEDB2092D15D823782D012B43237018
:1017D80002310134E6E72E00413E052E02D8373D9E
:1017E8002570ECE72E00613E052E01D9012070BD61
:1017F800573DF5E71D00413D052D03D8373B2578BA
:101808001B01E3E71D00613D052DEFD8573BF6E7C7
:10181800F0B5094F06003D6801201F2D0BDC3F295C
:1018280009D8064C280106552018416082600373C8
:10183800002001353D60F0BD940000209800002094
:1018480010B50023FFF7E4FF10BD000010B500211C
:10185800074A7620FFF7F4FF0021064A7720FFF7B2
:10186800EFFF00217920044AFFF7EAFF10BDC046C8
:1018780001170008591700083D170008F0B50025A2
:10188800B3B0FFF72BFA2B4B2B491A68AA4241DC5D
:101898003ED00127284C2D016619337B3B4218D0D6
:1018A80000236A461372FFF719FA48226B469B1801
:1018B8001870FFF713FA49226B469B18187002AA92
:1018C800380012A9FFF76CFF002821D16B461B7A5C
:1018D8007360002663195B685B00B34220D8FFF78A
:1018E800FDF90A2801D00D2812D16419656802AAE9
:1018F800280012A9FFF754FF002809D1E9B2A3680C
:1019080002A8984701AA107001217A20FFF7F6FE75
:1019180033B0F0BD2C010C5D8442BAD00135B5E777
:10192800FFF7DCF90A28F3D00D28F1D012ABF054F8
:101938000136CFE7940000209800002010B5002A57
:1019480001D0FFF7DBFE10BD002103E00B4B5B5815
:10195800435004310A480B4B42189A42F6D30A4ABC
:1019680002E0002313600432084B9A42F9D300E0E6
:1019780000BFFEF7D1FDFFF7D3F8FEE7301A0008E5
:10198800000000200400002004000020980200202D
:10199800FEE70000F8B5C046F8BC08BC9E46704794
:0C19A800F8B5C046F8BC08BC9E4670476D
:1019B4004E614A2D556752643270586B38763573D0
:1019C400A9EBBF9C0D94778D4DD347DE178DFB910A
:1019D4003B0408023031323334353637383941422A
:1019E40043444546646561646C7957686974654A23
:1019F4006164652121008A176724332B1652759977
:101A0400709122495819614188241315571253685B
:101A140031821346132500BAD591101310101924DE
:041A2400B6E119000E
:041A2800FD010008B4
:041A2C00D1010008DC
:041A300000127A0026
:040000050800195185
:00000001FF
