:020000040800F2
:10000000001000209D150008E5150008E515000802
:10001000E5150008E5150008E515000800000000DA
:10002000000000000000000000000000E5150008CE
:10003000E515000800000000E5150008E5150008BA
:1000400000000000000000000000000000000000B0
:1000500000000000000000000000000000000000A0
:100060000000000000000000000000000000000090
:100070000000000000000000000000000000000080
:100080000000000000000000000000000000000070
:100090000000000000000000000000000000000060
:1000A0000000000000000000000000000000000050
:1000B0000000000000000000000000000000000040
:1000C0000000000000000000000000000000000030
:1000D0000000000000000000000000000000000020
:1000E0000000000000000000000000000000000010
:1000F0000000000000000000000000000000000000
:1001000000000000000000000000000000000000EF
:1001100000000000000000000000000000000000DF
:1001200000000000000000000000000000000000CF
:1001300000000000000000000000000000000000BF
:1001400000000000000000000000000000000000AF
:10015000000000000000000000000000000000009F
:10016000000000000000000000000000000000008F
:10017000000000000000000000000000000000007F
:08018000000000000000000077
:100188000448054B10B5834203D0044B002B00D024
:10019800984710BD04000020040000200000000063
:1001A80006480749091A8B10C90FC91810B5491014
:1001B80003D0044B002B00D0984710BD040000204A
:1001C800040000200000000010B5074C2378002B25
:1001D80009D1FFF7D5FF054B002B02D0044800E0FA
:1001E80000BF0123237010BD0400002000000000A0
:1001F800E8150008054B10B5002B03D00449054845
:1002080000E000BFFFF7CCFF10BDC04600000000B3
:1002180008000020E815000802B4714649084900A2
:10022800095C49008E4402BC7047C046002243085E
:100238008B4274D303098B425FD3030A8B4244D3A6
:10024800030B8B4228D3030C8B420DD3FF220902E8
:1002580012BA030C8B4202D31212090265D0030BA7
:100268008B4219D300E0090AC30B8B4201D3CB039D
:10027800C01A5241830B8B4201D38B03C01A5241DF
:10028800430B8B4201D34B03C01A5241030B8B42E1
:1002980001D30B03C01A5241C30A8B4201D3CB02CC
:1002A800C01A5241830A8B4201D38B02C01A5241B1
:1002B800430A8B4201D34B02C01A5241030A8B42B4
:1002C80001D30B02C01A5241CDD2C3098B4201D3CC
:1002D800CB01C01A524183098B4201D38B01C01A4A
:1002E800524143098B4201D34B01C01A52410309C1
:1002F8008B4201D30B01C01A5241C3088B4201D370
:10030800CB00C01A524183088B4201D38B00C01A1C
:10031800524143088B4201D34B00C01A5241411A43
:1003280000D20146524110467047FFE701B5002050
:1003380000F006F802BDC0460029F7D076E77047FE
:100348007047C04670B50D4B0D4D5E1BB610AB42E5
:1003580005D0002408CD01349847A642FAD801F008
:100368003FF9084B084D5E1BB610AB4205D0002480
:1003780008CD01349847A642FAD870BD781600080F
:10038800781600087C16000878160008F0B50500F5
:100398000F2A31D903273E000D430C0003002E40DD
:1003A8002F4234D11500103D2D09AC462F013F18BE
:1003B80065685D60A5689D60E568DD602568103446
:1003C8001D601D001033BD42F2D165460F230C2479
:1003D80001352D0149191340451914421AD0043B1F
:1003E8009B0801339B008C59AC5104369E42FAD1CC
:1003F8000323AD1989191A40561E002A06D0002376
:10040800CC5C1A00EC5401339642F9D1F0BD0500DA
:10041800561EF4E71A00EFE7F0B50024C7B000AFA6
:100428007C6500F071FA5023FB181C805023FB18E0
:100438001B88632B00D851E100F06EFAFA237A6D1D
:100448005B019A4200D166E16B4688B03B606B461F
:100458007B61B94B50203B661823B84CB84E1B182B
:10046800B84D2022B849D819FC657E66BD65FFF7EE
:100478008DFF882200235020BA1813603C331B18C4
:10048800B249D8190C22FFF781FF0A23FB64B04B4D
:100498001921FB62AF4BBE613B64AF4B7C63FB61D0
:1004A800AE4BAF4EFB63AF4BAF48BB62A24BAF4CFA
:1004B8007B62AF4B7D643B62AE4BB964BB63002388
:1004C8003B63AD4B10217A6C9D183A6B6A40CA4168
:1004D800141963400431CB41E9184A401500182229
:1004E800D54162193A615340BA6C1024D341BA6BB2
:1004F800FB6094467B6B3A6A63445A407964110006
:10050800E14162463D63142508184240EA419B18C0
:100518007B6359401823D94139624118B9604A4070
:10052800B96C786ACA41B96A8C466044464033005F
:10053800E341FE6B9E197140E941401878624340DF
:100548001820C341F869F61884467B60BB6C71407B
:10055800D941BB69386C63445840E0419C46FB6A0A
:10056800C418FB696340EB416546ED18AC4668402A
:100578001825E841BD6C24186340EB41FB617B6C96
:100588009D1810236840D841361804337240DA4168
:10059800AD187D6468401825E84138643018F86360
:1005A8004240B86C1026C241BA637A6B50183A6B55
:1005B8004240F241A4186140D94140184240EA4102
:1005C8007863A0184140F862B86CFB69C141B96210
:1005D800796A3C69C818396A3A634140F14164183C
:1005E80004366340F341C0184140E9416418396258
:1005F800B96C6340CB41FB61FB6861469C46614432
:1006080032000E001023796878627140D941BB68C6
:100618001500581863464340D341F6187140043515
:10062800E941BE6140180E00B96C4340CB41F96CFA
:100638000139F964002900D044E770353C32AA1822
:10064800D1190C624862502408200B610B007A6CA7
:100658003D6C0A603A6BCD630A63FA6AFD6BCA6245
:10066800BA6A8D628A617A6ABD6B8A603A6A4D613C
:100678004A63FA697D6BCA61BA690019CA60FA6C83
:100688004D608E63C519186854590432001901C3A6
:10069800402AF8D1502048231B18DC192000FFF706
:1006A80075FE3649FB6CFA6C5B5CA25CF86C5340D7
:1006B8007A69135403000133FB641A2BF2D1190031
:1006C800722000F061FF3B689D462D4B786DBD465A
:1006D800C018431E9841000147B0F0BD5223FB18D3
:1006E8001C805223FB181B88272B08D95023502223
:1006F800FB181B88BA1801339BB2138096E67B6DF2
:10070800522202337B655223FB181B88BA18013327
:100718009BB21380E5E788245023E318D8191B22DD
:100728001849FFF733FE5023E3181A217220DA190B
:1007380000F02AFFC9E7C046322D62796E64203383
:100748007465206B657870612D1600084E160008D8
:1007580013461325F1B6E129224958195368318205
:1007680065A6D34575997091131557126141882470
:1007780008111005332B16528A1767240016000833
:10078800C0E0FFFF5B16000810B500F011F800F09C
:100798003BF800F079F800F07FFE00216420034A5E
:1007A80000F074FE00F090FEFCE7C046210400084B
:1007B800F0B59027002401250326042397B0FF05F0
:1007C800380005A9059306950794089600F042FBA2
:1007D800102305A93800059306950794089600F09C
:1007E80039FB05230AA80B930A960D94139400F07D
:1007F800C9F80723210001A80193029503940494E2
:1008080000F09EFA17B0F0BD802270B51B4C920222
:10081800636988B01343636163699020134001934F
:10082800019BC023DB00012503260393022303A9B0
:10083800C005049305950795069600F00BFB8022EA
:10084800A369D2011343A361A3690D48134002931E
:10085800029B236BB3431D430A4B25630360962316
:100868001B02436000238360C360036183610C3310
:10087800436100F059FC08B070BDC046001002404A
:10088800200000200038014080211E4BF0B55A6935
:1008980089020A435A615B6987B00B409024009330
:1008A800012500260327009B8023E405200001A9D9
:1008B800019302950396049700F0CCFA10232000C8
:1008C80001A9019302950396049700F0C3FA042343
:1008D800200001A9019302950396049700F0BAFA43
:1008E80032002000802100F067FB2A002000102140
:1008F80000F062FB2A000421200000F05DFB07B035
:10090800F0BDC04600100240902010B501228021A1
:10091800C00500F051FB10BD902010B500228021C9
:10092800C00500F049FB10BD37B508246B46DD1D36
:10093800012232232900064800F028FC002801D1B2
:1009480028783EBD034A136A23431362EEE7C04684
:10095800200000200038014007B56B46D91D0870FB
:1009680001220248024B00F087FC07BD200000204E
:1009780088130000024B1868421C1A607047C04672
:1009880090000020F0B50368040085B0DB072FD481
:1009980023689B0700D581E023681B0700D5BCE0CE
:1009A80023685B0700D5DFE02368DB061AD5626998
:1009B8000423B44D012A00D048E1696B02270B4398
:1009C8006B636B6B1A436A63FFF7D4FF06006B6BAC
:1009D8003B4200D133E1F8216A6BA3698A43DB000B
:1009E80013436B63216A002900D057E100202AE0F5
:1009F8000C22A44D6B681340042B06D06B6813407F
:100A0800082B0AD16B68DB0307D52B689B03BFD57E
:100A18006368002BBCD1012015E06368012B14D159
:100A280080232A685B0213432B60FFF7A3FF80270C
:100A38000600BF022B683B42AAD1FFF79BFF801B31
:100A48006428F7D9032005B0F0BD002B16D12B6818
:100A58008D4A802713402B602B688C4ABF021340B5
:100A68002B60FFF787FF06002B683B4200D18FE71A
:100A7800FFF780FF801B6428F6D9E3E7052B05D133
:100A880080232A68DB0213432B60C9E72B687E4A60
:100A980013402B602B687D4A1340C5E70C22794D23
:100AA8006B68134206D06B681340082B10D16B6833
:100AB800DB030DD42B689B0702D5E368012BAAD171
:100AC800F8212A6823698A43DB0013432B6063E714
:100AD800E2680123002A0FD02A68022713432B60FB
:100AE800FFF748FF06002B683B42E9D1FFF742FFBA
:100AF800801B0228F7D9A5E72A6802279A432A60AB
:100B0800FFF738FF06002B683B4200D144E7FFF7A8
:100B180031FF801B0228F6D994E7E2690123594D79
:100B2800002A10D06A6A022713436B62FFF722FF7C
:100B380006006B6A3B4200D032E7FFF71BFF801BC1
:100B48000228F6D97EE76A6A02279A436A62FFF7A3
:100B580011FF06006B6A3B4200D121E7FFF70AFF4D
:100B6800801B0228F6D96DE780220021454D5205E9
:100B7800EB690091134208D1EB691343EB61EB6910
:100B880013400393039B012300938027404E7F006B
:100B980033683B4215D0A368012B22D12A6A13433C
:100BA8002B62FFF7E7FE022706002B6A3B423FD085
:100BB800009B012B00D0F7E6EB69364A1340EB6146
:100BC800F2E633683B433360FFF7D4FE01903368A5
:100BD8003B42E0D1FFF7CEFE019BC01A6428F6D94C
:100BE80030E70122002B14D12B6A022793432B6292
:100BF8002B6A033293432B62FFF7BCFE06002B6A75
:100C08003B42D5D0FFF7B6FE234B801B9842F6D95E
:100C180018E7052B05D1296A013B0B432B622B6A88
:100C2800BDE72B6A934304222B622B6A9343B7E7F1
:100C3800FFF7A0FE184B801B9842B6D902E7FFF7D2
:100C480099FE801B022800D8C1E6FBE6053203D1D5
:100C58006A6B9A436A63BEE66A6B022713430122F2
:100C68006B636B6B93436B63FFF784FE06006B6BE0
:100C78003B4200D1B6E6FFF77DFE801B0228F6D97D
:100C8800E0E6C04600100240FFFFFEFFFFFFFBFF4B
:100C980000700040FFFFFFEF881300000C22254D75
:100CA8006B681340082B00D1B5E62B68224A134025
:100CB8002B6002292FD1FFF75DFE80270600BF04B5
:100CC8002B683B4221D10F22EB6A80269343E26ACC
:100CD800B6041343EB62616AA36A6A680B43174957
:100CE8000A4013436B6080232A685B0413432B601C
:100CF800FFF740FE04002B68334200D076E6FFF78A
:100D080039FE001B0228F6D99CE6FFF733FE801B4C
:100D18000228D5D996E6FFF72DFE80260400B604F2
:100D28002B68334200D161E6FFF724FE001B02283E
:100D3800F6D987E600100240FFFFFFFEFFFFC2FF63
:100D4800F7B501223E4D04002B680F0013408B427B
:100D580012D32268930719D4D2071FD401232A6813
:100D68001A40BA425DD823685B0761D4E122354B4B
:100D7800D20300201A6008E02B6893430B432B60D2
:100D88002B6813408B42E4D00120FEBDF0202E4991
:100D98004B688343A06803434B60DDE72A4E6268D3
:100DA8003368012A1AD19B03EED5032173688B435C
:100DB80013437360FFF7DEFD63680190012B15D1C3
:100DC8000C2273681340042BC8D0FFF7D3FD019B96
:100DD800C01A1E4B9842F3D90320D6E7022A02D143
:100DE8009B01E2D4D0E79B07DFD4CDE7022B12D0DA
:100DF8000C2273681342B1D0FFF7BCFD019BC01AE7
:100E0800124B9842F4D9E7E7FFF7B4FD019BC01AEB
:100E18000E4B9842E0D80C2273681340082BF3D18C
:100E28009CE72A689A432A602A681A429BD0ABE753
:100E3800054A074953680B40E1680B43536095E73F
:100E4800002002400000002000100240881300002B
:100E5800FFF8FFFF0023F0B587B00A681400DC40F4
:100E680001D107B0F0BD012614009E403440029421
:100E7800324200D192E04A6815000192102295434F
:100E88000395022D0FD107240F251C40A400A5406F
:100E9800DA0892008218176AAF43BC460F69A74068
:100EA80064462743176203225C00A240D543AC4640
:100EB800032507689743019A2A40A240039D3A43B5
:100EC800013D0260012D0DD8624685681540CA684B
:100ED800A2402A438260019A456812099A40B543A4
:100EE8002A4342606246C56815408A68A240802449
:100EF8002A43C260019A640522424FD00125284A3C
:100F080090279469FF052C43946192699C082A40B4
:100F18000592059A234AA400A4180F2202351D4001
:100F2800AD00AA40A66896430022B8420CD01E4FD6
:100F38000132B84208D01D4F0132B84204D01C4FCC
:100F48000332B84200D1023AAA403243A260194A99
:100F5800029C1668029D019FE4433543FF0301D4B8
:100F68003500254015605668029D019F3543BF0333
:100F780001D43500254055609668029D019F354390
:100F8800FF0201D4350025409560D568029E019F77
:100F98002E43BF0201D425402E00D66001335CE702
:100FA800001002400000014000040048000800480A
:100FB800000C004800040140002A01D081617047FC
:100FC8008162FCE7F7B504000E001700019325685D
:100FD800EB6933409B1B5A425341BB4201D000206E
:100FE80017E0089B0133F3D0089B002B12D12B6824
:100FF8000C4A032013402B60AB68A332FF329343A3
:101008002200AB60202369321370537000236834C8
:101018002370FEBDFFF7AEFC019BC01A089B9842E7
:10102800D5D9E4E75FFEFFFF030070B59A681D6934
:1010380004682A435D69C1692A432068334D0A431D
:10104800284002432260626831481D6A0240D8681D
:10105800024362609A69A0682A432E4D28400243E1
:1010680003208025A2602C4A2D02126B0240013A0F
:10107800022A37D82948805CA94214D108280FD8F9
:10108800FFF7CAF8320E050E320E0E0E0900596827
:10109800234B48082CE05968802348085B0227E066
:1010A8000120002329E008281AD8FFF7B5F80F19FE
:1010B80005190F191919140059681A4B4808C0184E
:1010C800FFF7B4F880B2E06000201DE05968E12322
:1010D8004808DB03F3E75968802348081B02EEE75A
:1010E800012011E0A942F1D15968E12348081B0405
:1010F800C018FFF79BF883B2002019000F221B07C6
:1011080091435B0F0B43E36070BDC046F369FFFF7B
:10111800FFCFFFFFFFF4FFFF001002401A16000880
:101128000048E8010024F400F8B5041E01D10120AC
:10113800F8BD060069363378DAB2002B02D1030015
:1011480068331A70242301273370256820002B6820
:10115800BB432B60FFF768FFB842E8D06B680A4AC8
:101168000020134008226B60AB689343AB602B6888
:1011780022001F4320232F606A32E06668343370F0
:1011880013702070D4E7C046FFF7FFFFF0B585B0B5
:10119800039303006A3316001A7804000D00022036
:1011A800202A3BD10138002938D0002E36D08022A1
:1011B800A1685201914204D12269002A01D1054255
:1011C8002CD12200683211780220012926D0012171
:1011D80011700022E26622321A70FFF7CBFB23005F
:1011E8008021A26858331E805E8002904901043332
:1011F8008A4217D12269002A12D11E4A1A808027F2
:101208001E887F0122005A32138898B2002B10D111
:10121800230020226A3368341A70207005B0F0BDAC
:10122800FF22EBE7002AEAD12269002AF8D07F22C0
:10123800E4E713882021013B9BB21380039B002223
:1012480000932000029BFFF7BDFE002810D1A26882
:101258002368BA4207D12269002A04D19B8C334003
:101268002B800235CEE79B8C33402B700135C9E7C4
:101278000320D3E7FF010000F0B5070085B0039312
:1012880069373B7804000D0016000220202B46D158
:101298000138002943D0002A41D08023A2685B018D
:1012A8009A4204D12369002B01D1014237D123008E
:1012B80068331A780220012A31D001221A700023DB
:1012C800E36621333B70FFF755FB230050331E8044
:1012D8005E80802602907601210052310B889AB2F6
:1012E800002B0DD1039B402100932000029BFFF7A8
:1012F80069FE002812D1202368343B7020700EE06C
:101308000B880022013B9BB20B80039B802100933A
:101318002000029BFFF756FE002802D0032005B0EC
:10132800F0BDA3682268B34208D12369002B05D118
:101338002B880235DB05DB0D1385CDE72B780135CE
:101348001385C9E701207047F8B50D0014000F2771
:10135800FFF702FB6519AC4203D10A20FFF7FCFA3C
:10136800F8BD2378054E1B09F05CFFF7F5FA2378E2
:1013780001343B40F05CFFF7EFFAECE71D1600087C
:1013880007B56B46DA1D044B72201B6801211370E8
:10139800FFF7DAFF00200EBD940000200322114B56
:1013A800944618680023F0B50F4C99B0C6B2B34202
:1013B80009DB614641436A467220C9B2FFF7C4FFA0
:1013C800002019B0F0BD654669465D431A01175DF6
:1013D800A2184F555768127B6D4401336F70AA707D
:1013E800DBB2E4E7940000209800002070B51400F8
:1013F800A31A984201DC00201FE04D780B782E00DC
:10140800303EF6B2092E0CD826701D00303DEDB2E4
:10141800092D15D823782D012B432370023101346F
:10142800E6E72E00413E052E02D8373D2570ECE751
:101438002E00613E052E01D9012070BD573DF5E70C
:101448001D00413D052D03D8373B25781B01E3E7F7
:101458001D00613D052DEFD8573BF6E7F0B5094F64
:1014680006003D6801201F2D0BDC3F2909D8064CDA
:101478002801065520184160826003730020013559
:101488003D60F0BD940000209800002010B50023B6
:10149800FFF7E4FF10BD000010B50021074A7620D1
:1014A800FFF7F4FF0021064A7720FFF7EFFF00213E
:1014B8007920044AFFF7EAFF10BDC0464D13000823
:1014C800A513000889130008F0B50025B3B0FFF78D
:1014D8002BFA2B4B2B491A68AA4241DC3ED0012734
:1014E800284C2D016619337B3B4218D000236A46ED
:1014F8001372FFF719FA48226B469B181870FFF70A
:1015080013FA49226B469B18187002AA380012A9D0
:10151800FFF76CFF002821D16B461B7A7360002609
:1015280063195B685B00B34220D8FFF7FDF90A280E
:1015380001D00D2812D16419656802AA280012A9E1
:10154800FFF754FF002809D1E9B2A36802A8984719
:1015580001AA107001217A20FFF7F6FE33B0F0BD22
:101568002C010C5D8442BAD00135B5E7FFF7DCF9F0
:101578000A28F3D00D28F1D012ABF0540136CFE78A
:10158800940000209800002010B5002A01D0FFF731
:10159800DBFE10BD002103E00B4B5B5843500431C8
:1015A8000A480B4B42189A42F6D30A4A02E0002333
:1015B80013600432084B9A42F9D300E000BFFEF7EB
:1015C800C1FEFFF7E1F8FEE78016000800000020E2
:1015D800040000200400002098020020FEE700001C
:1015E800F8B5C046F8BC08BC9E467047F8B5C0467A
:0815F800F8BC08BC9E467047D8
:101600006B9557C90DF3B4FEE8BEE91DA21437FD72
:10161000161530142B7D89095734040802303132F5
:10162000333435363738394142434445468A1767A3
:1016300024332B16527599709122495819614188AB
:1016400024131557125368318213461325000811CD
:10165000100565A6D345F1B6E12900444941474E3E
:101660004F535449435F4F4B2020202020202020FF
:081670002020202020000000D2
:04167800FD01000868
:04167C00D101000890
:0416800000127A00DA
:040000050800159D3D
:00000001FF
